{
	"ProofOf Work/catsProofOfwork.sol": {
		"CatStore": {
			"abi": [
				{
					"inputs": [
						{
							"internalType": "uint256",
							"name": "",
							"type": "uint256"
						}
					],
					"name": "cats",
					"outputs": [
						{
							"internalType": "string",
							"name": "name",
							"type": "string"
						},
						{
							"internalType": "uint256",
							"name": "age",
							"type": "uint256"
						}
					],
					"stateMutability": "view",
					"type": "function"
				},
				{
					"inputs": [
						{
							"internalType": "string",
							"name": "newName",
							"type": "string"
						}
					],
					"name": "changeCatCallData",
					"outputs": [],
					"stateMutability": "nonpayable",
					"type": "function"
				},
				{
					"inputs": [
						{
							"internalType": "uint256",
							"name": "newAge",
							"type": "uint256"
						}
					],
					"name": "changeCatInMemory",
					"outputs": [],
					"stateMutability": "view",
					"type": "function"
				},
				{
					"inputs": [
						{
							"internalType": "uint256",
							"name": "newAge",
							"type": "uint256"
						}
					],
					"name": "changeCatInStorage",
					"outputs": [],
					"stateMutability": "nonpayable",
					"type": "function"
				},
				{
					"inputs": [],
					"name": "createCats",
					"outputs": [],
					"stateMutability": "nonpayable",
					"type": "function"
				}
			],
			"devdoc": {
				"kind": "dev",
				"methods": {},
				"version": 1
			},
			"evm": {
				"assembly": "    /* \"ProofOf Work/catsProofOfwork.sol\":58:703  contract CatStore {... */\n  mstore(0x40, 0x80)\n  callvalue\n  dup1\n  iszero\n  tag_1\n  jumpi\n  0x00\n  dup1\n  revert\ntag_1:\n  pop\n  dataSize(sub_0)\n  dup1\n  dataOffset(sub_0)\n  0x00\n  codecopy\n  0x00\n  return\nstop\n\nsub_0: assembly {\n        /* \"ProofOf Work/catsProofOfwork.sol\":58:703  contract CatStore {... */\n      mstore(0x40, 0x80)\n      callvalue\n      dup1\n      iszero\n      tag_1\n      jumpi\n      0x00\n      dup1\n      revert\n    tag_1:\n      pop\n      jumpi(tag_2, lt(calldatasize, 0x04))\n      shr(0xe0, calldataload(0x00))\n      dup1\n      0x15bf62d1\n      eq\n      tag_3\n      jumpi\n      dup1\n      0x57141452\n      eq\n      tag_4\n      jumpi\n      dup1\n      0x8e43eeac\n      eq\n      tag_5\n      jumpi\n      dup1\n      0xc6df962d\n      eq\n      tag_6\n      jumpi\n      dup1\n      0xf19922f7\n      eq\n      tag_7\n      jumpi\n    tag_2:\n      0x00\n      dup1\n      revert\n        /* \"ProofOf Work/catsProofOfwork.sol\":169:317  function createCats() public {... */\n    tag_3:\n      tag_8\n      tag_9\n      jump\t// in\n    tag_8:\n      stop\n        /* \"ProofOf Work/catsProofOfwork.sol\":324:443  function changeCatInMemory(uint newAge) public view {... */\n    tag_4:\n      tag_10\n      0x04\n      dup1\n      calldatasize\n      sub\n      dup2\n      add\n      swap1\n      tag_11\n      swap2\n      swap1\n      tag_12\n      jump\t// in\n    tag_11:\n      tag_13\n      jump\t// in\n    tag_10:\n      stop\n        /* \"ProofOf Work/catsProofOfwork.sol\":449:565  function changeCatInStorage(uint newAge) public {... */\n    tag_5:\n      tag_14\n      0x04\n      dup1\n      calldatasize\n      sub\n      dup2\n      add\n      swap1\n      tag_15\n      swap2\n      swap1\n      tag_12\n      jump\t// in\n    tag_15:\n      tag_16\n      jump\t// in\n    tag_14:\n      stop\n        /* \"ProofOf Work/catsProofOfwork.sol\":145:162  Cat[] public cats */\n    tag_6:\n      tag_17\n      0x04\n      dup1\n      calldatasize\n      sub\n      dup2\n      add\n      swap1\n      tag_18\n      swap2\n      swap1\n      tag_12\n      jump\t// in\n    tag_18:\n      tag_19\n      jump\t// in\n    tag_17:\n      mload(0x40)\n      tag_20\n      swap3\n      swap2\n      swap1\n      tag_21\n      jump\t// in\n    tag_20:\n      mload(0x40)\n      dup1\n      swap2\n      sub\n      swap1\n      return\n        /* \"ProofOf Work/catsProofOfwork.sol\":571:700  function changeCatCallData(string calldata newName) public {... */\n    tag_7:\n      tag_22\n      0x04\n      dup1\n      calldatasize\n      sub\n      dup2\n      add\n      swap1\n      tag_23\n      swap2\n      swap1\n      tag_24\n      jump\t// in\n    tag_23:\n      tag_25\n      jump\t// in\n    tag_22:\n      stop\n        /* \"ProofOf Work/catsProofOfwork.sol\":169:317  function createCats() public {... */\n    tag_9:\n        /* \"ProofOf Work/catsProofOfwork.sol\":208:222  Cat memory cat */\n      0x00\n        /* \"ProofOf Work/catsProofOfwork.sol\":225:286  Cat({... */\n      mload(0x40)\n      dup1\n      0x40\n      add\n      0x40\n      mstore\n      dup1\n      mload(0x40)\n      dup1\n      0x40\n      add\n      0x40\n      mstore\n      dup1\n      0x04\n      dup2\n      mstore\n      0x20\n      add\n      0x5061777300000000000000000000000000000000000000000000000000000000\n      dup2\n      mstore\n      pop\n      dup2\n      mstore\n      0x20\n      add\n        /* \"ProofOf Work/catsProofOfwork.sol\":274:275  5 */\n      0x05\n        /* \"ProofOf Work/catsProofOfwork.sol\":225:286  Cat({... */\n      dup2\n      mstore\n      pop\n        /* \"ProofOf Work/catsProofOfwork.sol\":208:286  Cat memory cat = Cat({... */\n      swap1\n      pop\n        /* \"ProofOf Work/catsProofOfwork.sol\":296:300  cats */\n      0x00\n        /* \"ProofOf Work/catsProofOfwork.sol\":306:309  cat */\n      dup2\n        /* \"ProofOf Work/catsProofOfwork.sol\":296:310  cats.push(cat) */\n      swap1\n      dup1\n      0x01\n      dup2\n      sload\n      add\n      dup1\n      dup3\n      sstore\n      dup1\n      swap2\n      pop\n      pop\n      0x01\n      swap1\n      sub\n      swap1\n      0x00\n      mstore\n      keccak256(0x00, 0x20)\n      swap1\n      0x02\n      mul\n      add\n      0x00\n      swap1\n      swap2\n      swap1\n      swap2\n      swap1\n      swap2\n      pop\n      0x00\n      dup3\n      add\n      mload\n      dup2\n      0x00\n      add\n      swap1\n      dup2\n      tag_28\n      swap2\n      swap1\n      tag_29\n      jump\t// in\n    tag_28:\n      pop\n      0x20\n      dup3\n      add\n      mload\n      dup2\n      0x01\n      add\n      sstore\n      pop\n      pop\n        /* \"ProofOf Work/catsProofOfwork.sol\":198:317  {... */\n      pop\n        /* \"ProofOf Work/catsProofOfwork.sol\":169:317  function createCats() public {... */\n      jump\t// out\n        /* \"ProofOf Work/catsProofOfwork.sol\":324:443  function changeCatInMemory(uint newAge) public view {... */\n    tag_13:\n        /* \"ProofOf Work/catsProofOfwork.sol\":386:400  Cat memory cat */\n      0x00\n        /* \"ProofOf Work/catsProofOfwork.sol\":403:407  cats */\n      dup1\n        /* \"ProofOf Work/catsProofOfwork.sol\":408:409  0 */\n      0x00\n        /* \"ProofOf Work/catsProofOfwork.sol\":403:410  cats[0] */\n      dup2\n      sload\n      dup2\n      lt\n      tag_31\n      jumpi\n      tag_32\n      tag_33\n      jump\t// in\n    tag_32:\n    tag_31:\n      swap1\n      0x00\n      mstore\n      keccak256(0x00, 0x20)\n      swap1\n      0x02\n      mul\n      add\n        /* \"ProofOf Work/catsProofOfwork.sol\":386:410  Cat memory cat = cats[0] */\n      mload(0x40)\n      dup1\n      0x40\n      add\n      0x40\n      mstore\n      swap1\n      dup2\n      0x00\n      dup3\n      add\n      dup1\n      sload\n      tag_35\n      swap1\n      tag_36\n      jump\t// in\n    tag_35:\n      dup1\n      0x1f\n      add\n      0x20\n      dup1\n      swap2\n      div\n      mul\n      0x20\n      add\n      mload(0x40)\n      swap1\n      dup2\n      add\n      0x40\n      mstore\n      dup1\n      swap3\n      swap2\n      swap1\n      dup2\n      dup2\n      mstore\n      0x20\n      add\n      dup3\n      dup1\n      sload\n      tag_37\n      swap1\n      tag_36\n      jump\t// in\n    tag_37:\n      dup1\n      iszero\n      tag_38\n      jumpi\n      dup1\n      0x1f\n      lt\n      tag_39\n      jumpi\n      0x0100\n      dup1\n      dup4\n      sload\n      div\n      mul\n      dup4\n      mstore\n      swap2\n      0x20\n      add\n      swap2\n      jump(tag_38)\n    tag_39:\n      dup3\n      add\n      swap2\n      swap1\n      0x00\n      mstore\n      keccak256(0x00, 0x20)\n      swap1\n    tag_40:\n      dup2\n      sload\n      dup2\n      mstore\n      swap1\n      0x01\n      add\n      swap1\n      0x20\n      add\n      dup1\n      dup4\n      gt\n      tag_40\n      jumpi\n      dup3\n      swap1\n      sub\n      0x1f\n      and\n      dup3\n      add\n      swap2\n    tag_38:\n      pop\n      pop\n      pop\n      pop\n      pop\n      dup2\n      mstore\n      0x20\n      add\n      0x01\n      dup3\n      add\n      sload\n      dup2\n      mstore\n      pop\n      pop\n      swap1\n      pop\n        /* \"ProofOf Work/catsProofOfwork.sol\":430:436  newAge */\n      dup2\n        /* \"ProofOf Work/catsProofOfwork.sol\":420:423  cat */\n      dup2\n        /* \"ProofOf Work/catsProofOfwork.sol\":420:427  cat.age */\n      0x20\n      add\n        /* \"ProofOf Work/catsProofOfwork.sol\":420:436  cat.age = newAge */\n      dup2\n      dup2\n      mstore\n      pop\n      pop\n        /* \"ProofOf Work/catsProofOfwork.sol\":376:443  {... */\n      pop\n        /* \"ProofOf Work/catsProofOfwork.sol\":324:443  function changeCatInMemory(uint newAge) public view {... */\n      pop\n      jump\t// out\n        /* \"ProofOf Work/catsProofOfwork.sol\":449:565  function changeCatInStorage(uint newAge) public {... */\n    tag_16:\n        /* \"ProofOf Work/catsProofOfwork.sol\":507:522  Cat storage cat */\n      0x00\n        /* \"ProofOf Work/catsProofOfwork.sol\":525:529  cats */\n      dup1\n        /* \"ProofOf Work/catsProofOfwork.sol\":530:531  0 */\n      0x00\n        /* \"ProofOf Work/catsProofOfwork.sol\":525:532  cats[0] */\n      dup2\n      sload\n      dup2\n      lt\n      tag_42\n      jumpi\n      tag_43\n      tag_33\n      jump\t// in\n    tag_43:\n    tag_42:\n      swap1\n      0x00\n      mstore\n      keccak256(0x00, 0x20)\n      swap1\n      0x02\n      mul\n      add\n        /* \"ProofOf Work/catsProofOfwork.sol\":507:532  Cat storage cat = cats[0] */\n      swap1\n      pop\n        /* \"ProofOf Work/catsProofOfwork.sol\":552:558  newAge */\n      dup2\n        /* \"ProofOf Work/catsProofOfwork.sol\":542:545  cat */\n      dup2\n        /* \"ProofOf Work/catsProofOfwork.sol\":542:549  cat.age */\n      0x01\n      add\n        /* \"ProofOf Work/catsProofOfwork.sol\":542:558  cat.age = newAge */\n      dup2\n      swap1\n      sstore\n      pop\n        /* \"ProofOf Work/catsProofOfwork.sol\":497:565  {... */\n      pop\n        /* \"ProofOf Work/catsProofOfwork.sol\":449:565  function changeCatInStorage(uint newAge) public {... */\n      pop\n      jump\t// out\n        /* \"ProofOf Work/catsProofOfwork.sol\":145:162  Cat[] public cats */\n    tag_19:\n      0x00\n      dup2\n      dup2\n      sload\n      dup2\n      lt\n      tag_45\n      jumpi\n      0x00\n      dup1\n      revert\n    tag_45:\n      swap1\n      0x00\n      mstore\n      keccak256(0x00, 0x20)\n      swap1\n      0x02\n      mul\n      add\n      0x00\n      swap2\n      pop\n      swap1\n      pop\n      dup1\n      0x00\n      add\n      dup1\n      sload\n      tag_47\n      swap1\n      tag_36\n      jump\t// in\n    tag_47:\n      dup1\n      0x1f\n      add\n      0x20\n      dup1\n      swap2\n      div\n      mul\n      0x20\n      add\n      mload(0x40)\n      swap1\n      dup2\n      add\n      0x40\n      mstore\n      dup1\n      swap3\n      swap2\n      swap1\n      dup2\n      dup2\n      mstore\n      0x20\n      add\n      dup3\n      dup1\n      sload\n      tag_48\n      swap1\n      tag_36\n      jump\t// in\n    tag_48:\n      dup1\n      iszero\n      tag_49\n      jumpi\n      dup1\n      0x1f\n      lt\n      tag_50\n      jumpi\n      0x0100\n      dup1\n      dup4\n      sload\n      div\n      mul\n      dup4\n      mstore\n      swap2\n      0x20\n      add\n      swap2\n      jump(tag_49)\n    tag_50:\n      dup3\n      add\n      swap2\n      swap1\n      0x00\n      mstore\n      keccak256(0x00, 0x20)\n      swap1\n    tag_51:\n      dup2\n      sload\n      dup2\n      mstore\n      swap1\n      0x01\n      add\n      swap1\n      0x20\n      add\n      dup1\n      dup4\n      gt\n      tag_51\n      jumpi\n      dup3\n      swap1\n      sub\n      0x1f\n      and\n      dup3\n      add\n      swap2\n    tag_49:\n      pop\n      pop\n      pop\n      pop\n      pop\n      swap1\n      dup1\n      0x01\n      add\n      sload\n      swap1\n      pop\n      dup3\n      jump\t// out\n        /* \"ProofOf Work/catsProofOfwork.sol\":571:700  function changeCatCallData(string calldata newName) public {... */\n    tag_25:\n        /* \"ProofOf Work/catsProofOfwork.sol\":640:655  Cat storage cat */\n      0x00\n        /* \"ProofOf Work/catsProofOfwork.sol\":658:662  cats */\n      dup1\n        /* \"ProofOf Work/catsProofOfwork.sol\":663:664  0 */\n      0x00\n        /* \"ProofOf Work/catsProofOfwork.sol\":658:665  cats[0] */\n      dup2\n      sload\n      dup2\n      lt\n      tag_53\n      jumpi\n      tag_54\n      tag_33\n      jump\t// in\n    tag_54:\n    tag_53:\n      swap1\n      0x00\n      mstore\n      keccak256(0x00, 0x20)\n      swap1\n      0x02\n      mul\n      add\n        /* \"ProofOf Work/catsProofOfwork.sol\":640:665  Cat storage cat = cats[0] */\n      swap1\n      pop\n        /* \"ProofOf Work/catsProofOfwork.sol\":686:693  newName */\n      dup3\n      dup3\n        /* \"ProofOf Work/catsProofOfwork.sol\":675:678  cat */\n      dup3\n        /* \"ProofOf Work/catsProofOfwork.sol\":675:683  cat.name */\n      0x00\n      add\n        /* \"ProofOf Work/catsProofOfwork.sol\":675:693  cat.name = newName */\n      swap2\n      dup3\n      tag_56\n      swap3\n      swap2\n      swap1\n      tag_57\n      jump\t// in\n    tag_56:\n      pop\n        /* \"ProofOf Work/catsProofOfwork.sol\":630:700  {... */\n      pop\n        /* \"ProofOf Work/catsProofOfwork.sol\":571:700  function changeCatCallData(string calldata newName) public {... */\n      pop\n      pop\n      jump\t// out\n        /* \"#utility.yul\":88:205   */\n    tag_59:\n        /* \"#utility.yul\":197:198   */\n      0x00\n        /* \"#utility.yul\":194:195   */\n      dup1\n        /* \"#utility.yul\":187:199   */\n      revert\n        /* \"#utility.yul\":211:328   */\n    tag_60:\n        /* \"#utility.yul\":320:321   */\n      0x00\n        /* \"#utility.yul\":317:318   */\n      dup1\n        /* \"#utility.yul\":310:322   */\n      revert\n        /* \"#utility.yul\":334:411   */\n    tag_61:\n        /* \"#utility.yul\":371:378   */\n      0x00\n        /* \"#utility.yul\":400:405   */\n      dup2\n        /* \"#utility.yul\":389:405   */\n      swap1\n      pop\n        /* \"#utility.yul\":334:411   */\n      swap2\n      swap1\n      pop\n      jump\t// out\n        /* \"#utility.yul\":417:539   */\n    tag_62:\n        /* \"#utility.yul\":490:514   */\n      tag_98\n        /* \"#utility.yul\":508:513   */\n      dup2\n        /* \"#utility.yul\":490:514   */\n      tag_61\n      jump\t// in\n    tag_98:\n        /* \"#utility.yul\":483:488   */\n      dup2\n        /* \"#utility.yul\":480:515   */\n      eq\n        /* \"#utility.yul\":470:533   */\n      tag_99\n      jumpi\n        /* \"#utility.yul\":529:530   */\n      0x00\n        /* \"#utility.yul\":526:527   */\n      dup1\n        /* \"#utility.yul\":519:531   */\n      revert\n        /* \"#utility.yul\":470:533   */\n    tag_99:\n        /* \"#utility.yul\":417:539   */\n      pop\n      jump\t// out\n        /* \"#utility.yul\":545:684   */\n    tag_63:\n        /* \"#utility.yul\":591:596   */\n      0x00\n        /* \"#utility.yul\":629:635   */\n      dup2\n        /* \"#utility.yul\":616:636   */\n      calldataload\n        /* \"#utility.yul\":607:636   */\n      swap1\n      pop\n        /* \"#utility.yul\":645:678   */\n      tag_101\n        /* \"#utility.yul\":672:677   */\n      dup2\n        /* \"#utility.yul\":645:678   */\n      tag_62\n      jump\t// in\n    tag_101:\n        /* \"#utility.yul\":545:684   */\n      swap3\n      swap2\n      pop\n      pop\n      jump\t// out\n        /* \"#utility.yul\":690:1019   */\n    tag_12:\n        /* \"#utility.yul\":749:755   */\n      0x00\n        /* \"#utility.yul\":798:800   */\n      0x20\n        /* \"#utility.yul\":786:795   */\n      dup3\n        /* \"#utility.yul\":777:784   */\n      dup5\n        /* \"#utility.yul\":773:796   */\n      sub\n        /* \"#utility.yul\":769:801   */\n      slt\n        /* \"#utility.yul\":766:885   */\n      iszero\n      tag_103\n      jumpi\n        /* \"#utility.yul\":804:883   */\n      tag_104\n      tag_59\n      jump\t// in\n    tag_104:\n        /* \"#utility.yul\":766:885   */\n    tag_103:\n        /* \"#utility.yul\":924:925   */\n      0x00\n        /* \"#utility.yul\":949:1002   */\n      tag_105\n        /* \"#utility.yul\":994:1001   */\n      dup5\n        /* \"#utility.yul\":985:991   */\n      dup3\n        /* \"#utility.yul\":974:983   */\n      dup6\n        /* \"#utility.yul\":970:992   */\n      add\n        /* \"#utility.yul\":949:1002   */\n      tag_63\n      jump\t// in\n    tag_105:\n        /* \"#utility.yul\":939:1002   */\n      swap2\n      pop\n        /* \"#utility.yul\":895:1012   */\n      pop\n        /* \"#utility.yul\":690:1019   */\n      swap3\n      swap2\n      pop\n      pop\n      jump\t// out\n        /* \"#utility.yul\":1025:1124   */\n    tag_64:\n        /* \"#utility.yul\":1077:1083   */\n      0x00\n        /* \"#utility.yul\":1111:1116   */\n      dup2\n        /* \"#utility.yul\":1105:1117   */\n      mload\n        /* \"#utility.yul\":1095:1117   */\n      swap1\n      pop\n        /* \"#utility.yul\":1025:1124   */\n      swap2\n      swap1\n      pop\n      jump\t// out\n        /* \"#utility.yul\":1130:1299   */\n    tag_65:\n        /* \"#utility.yul\":1214:1225   */\n      0x00\n        /* \"#utility.yul\":1248:1254   */\n      dup3\n        /* \"#utility.yul\":1243:1246   */\n      dup3\n        /* \"#utility.yul\":1236:1255   */\n      mstore\n        /* \"#utility.yul\":1288:1292   */\n      0x20\n        /* \"#utility.yul\":1283:1286   */\n      dup3\n        /* \"#utility.yul\":1279:1293   */\n      add\n        /* \"#utility.yul\":1264:1293   */\n      swap1\n      pop\n        /* \"#utility.yul\":1130:1299   */\n      swap3\n      swap2\n      pop\n      pop\n      jump\t// out\n        /* \"#utility.yul\":1305:1444   */\n    tag_66:\n        /* \"#utility.yul\":1394:1400   */\n      dup3\n        /* \"#utility.yul\":1389:1392   */\n      dup2\n        /* \"#utility.yul\":1384:1387   */\n      dup4\n        /* \"#utility.yul\":1378:1401   */\n      mcopy\n        /* \"#utility.yul\":1435:1436   */\n      0x00\n        /* \"#utility.yul\":1426:1432   */\n      dup4\n        /* \"#utility.yul\":1421:1424   */\n      dup4\n        /* \"#utility.yul\":1417:1433   */\n      add\n        /* \"#utility.yul\":1410:1437   */\n      mstore\n        /* \"#utility.yul\":1305:1444   */\n      pop\n      pop\n      pop\n      jump\t// out\n        /* \"#utility.yul\":1450:1552   */\n    tag_67:\n        /* \"#utility.yul\":1491:1497   */\n      0x00\n        /* \"#utility.yul\":1542:1544   */\n      0x1f\n        /* \"#utility.yul\":1538:1545   */\n      not\n        /* \"#utility.yul\":1533:1535   */\n      0x1f\n        /* \"#utility.yul\":1526:1531   */\n      dup4\n        /* \"#utility.yul\":1522:1536   */\n      add\n        /* \"#utility.yul\":1518:1546   */\n      and\n        /* \"#utility.yul\":1508:1546   */\n      swap1\n      pop\n        /* \"#utility.yul\":1450:1552   */\n      swap2\n      swap1\n      pop\n      jump\t// out\n        /* \"#utility.yul\":1558:1935   */\n    tag_68:\n        /* \"#utility.yul\":1646:1649   */\n      0x00\n        /* \"#utility.yul\":1674:1713   */\n      tag_111\n        /* \"#utility.yul\":1707:1712   */\n      dup3\n        /* \"#utility.yul\":1674:1713   */\n      tag_64\n      jump\t// in\n    tag_111:\n        /* \"#utility.yul\":1729:1800   */\n      tag_112\n        /* \"#utility.yul\":1793:1799   */\n      dup2\n        /* \"#utility.yul\":1788:1791   */\n      dup6\n        /* \"#utility.yul\":1729:1800   */\n      tag_65\n      jump\t// in\n    tag_112:\n        /* \"#utility.yul\":1722:1800   */\n      swap4\n      pop\n        /* \"#utility.yul\":1809:1874   */\n      tag_113\n        /* \"#utility.yul\":1867:1873   */\n      dup2\n        /* \"#utility.yul\":1862:1865   */\n      dup6\n        /* \"#utility.yul\":1855:1859   */\n      0x20\n        /* \"#utility.yul\":1848:1853   */\n      dup7\n        /* \"#utility.yul\":1844:1860   */\n      add\n        /* \"#utility.yul\":1809:1874   */\n      tag_66\n      jump\t// in\n    tag_113:\n        /* \"#utility.yul\":1899:1928   */\n      tag_114\n        /* \"#utility.yul\":1921:1927   */\n      dup2\n        /* \"#utility.yul\":1899:1928   */\n      tag_67\n      jump\t// in\n    tag_114:\n        /* \"#utility.yul\":1894:1897   */\n      dup5\n        /* \"#utility.yul\":1890:1929   */\n      add\n        /* \"#utility.yul\":1883:1929   */\n      swap2\n      pop\n        /* \"#utility.yul\":1650:1935   */\n      pop\n        /* \"#utility.yul\":1558:1935   */\n      swap3\n      swap2\n      pop\n      pop\n      jump\t// out\n        /* \"#utility.yul\":1941:2059   */\n    tag_69:\n        /* \"#utility.yul\":2028:2052   */\n      tag_116\n        /* \"#utility.yul\":2046:2051   */\n      dup2\n        /* \"#utility.yul\":2028:2052   */\n      tag_61\n      jump\t// in\n    tag_116:\n        /* \"#utility.yul\":2023:2026   */\n      dup3\n        /* \"#utility.yul\":2016:2053   */\n      mstore\n        /* \"#utility.yul\":1941:2059   */\n      pop\n      pop\n      jump\t// out\n        /* \"#utility.yul\":2065:2488   */\n    tag_21:\n        /* \"#utility.yul\":2206:2210   */\n      0x00\n        /* \"#utility.yul\":2244:2246   */\n      0x40\n        /* \"#utility.yul\":2233:2242   */\n      dup3\n        /* \"#utility.yul\":2229:2247   */\n      add\n        /* \"#utility.yul\":2221:2247   */\n      swap1\n      pop\n        /* \"#utility.yul\":2293:2302   */\n      dup2\n        /* \"#utility.yul\":2287:2291   */\n      dup2\n        /* \"#utility.yul\":2283:2303   */\n      sub\n        /* \"#utility.yul\":2279:2280   */\n      0x00\n        /* \"#utility.yul\":2268:2277   */\n      dup4\n        /* \"#utility.yul\":2264:2281   */\n      add\n        /* \"#utility.yul\":2257:2304   */\n      mstore\n        /* \"#utility.yul\":2321:2399   */\n      tag_118\n        /* \"#utility.yul\":2394:2398   */\n      dup2\n        /* \"#utility.yul\":2385:2391   */\n      dup6\n        /* \"#utility.yul\":2321:2399   */\n      tag_68\n      jump\t// in\n    tag_118:\n        /* \"#utility.yul\":2313:2399   */\n      swap1\n      pop\n        /* \"#utility.yul\":2409:2481   */\n      tag_119\n        /* \"#utility.yul\":2477:2479   */\n      0x20\n        /* \"#utility.yul\":2466:2475   */\n      dup4\n        /* \"#utility.yul\":2462:2480   */\n      add\n        /* \"#utility.yul\":2453:2459   */\n      dup5\n        /* \"#utility.yul\":2409:2481   */\n      tag_69\n      jump\t// in\n    tag_119:\n        /* \"#utility.yul\":2065:2488   */\n      swap4\n      swap3\n      pop\n      pop\n      pop\n      jump\t// out\n        /* \"#utility.yul\":2494:2611   */\n    tag_70:\n        /* \"#utility.yul\":2603:2604   */\n      0x00\n        /* \"#utility.yul\":2600:2601   */\n      dup1\n        /* \"#utility.yul\":2593:2605   */\n      revert\n        /* \"#utility.yul\":2617:2734   */\n    tag_71:\n        /* \"#utility.yul\":2726:2727   */\n      0x00\n        /* \"#utility.yul\":2723:2724   */\n      dup1\n        /* \"#utility.yul\":2716:2728   */\n      revert\n        /* \"#utility.yul\":2740:2857   */\n    tag_72:\n        /* \"#utility.yul\":2849:2850   */\n      0x00\n        /* \"#utility.yul\":2846:2847   */\n      dup1\n        /* \"#utility.yul\":2839:2851   */\n      revert\n        /* \"#utility.yul\":2877:3430   */\n    tag_73:\n        /* \"#utility.yul\":2935:2943   */\n      0x00\n        /* \"#utility.yul\":2945:2951   */\n      dup1\n        /* \"#utility.yul\":2995:2998   */\n      dup4\n        /* \"#utility.yul\":2988:2992   */\n      0x1f\n        /* \"#utility.yul\":2980:2986   */\n      dup5\n        /* \"#utility.yul\":2976:2993   */\n      add\n        /* \"#utility.yul\":2972:2999   */\n      slt\n        /* \"#utility.yul\":2962:3084   */\n      tag_124\n      jumpi\n        /* \"#utility.yul\":3003:3082   */\n      tag_125\n      tag_70\n      jump\t// in\n    tag_125:\n        /* \"#utility.yul\":2962:3084   */\n    tag_124:\n        /* \"#utility.yul\":3116:3122   */\n      dup3\n        /* \"#utility.yul\":3103:3123   */\n      calldataload\n        /* \"#utility.yul\":3093:3123   */\n      swap1\n      pop\n        /* \"#utility.yul\":3146:3164   */\n      0xffffffffffffffff\n        /* \"#utility.yul\":3138:3144   */\n      dup2\n        /* \"#utility.yul\":3135:3165   */\n      gt\n        /* \"#utility.yul\":3132:3249   */\n      iszero\n      tag_126\n      jumpi\n        /* \"#utility.yul\":3168:3247   */\n      tag_127\n      tag_71\n      jump\t// in\n    tag_127:\n        /* \"#utility.yul\":3132:3249   */\n    tag_126:\n        /* \"#utility.yul\":3282:3286   */\n      0x20\n        /* \"#utility.yul\":3274:3280   */\n      dup4\n        /* \"#utility.yul\":3270:3287   */\n      add\n        /* \"#utility.yul\":3258:3287   */\n      swap2\n      pop\n        /* \"#utility.yul\":3336:3339   */\n      dup4\n        /* \"#utility.yul\":3328:3332   */\n      0x01\n        /* \"#utility.yul\":3320:3326   */\n      dup3\n        /* \"#utility.yul\":3316:3333   */\n      mul\n        /* \"#utility.yul\":3306:3314   */\n      dup4\n        /* \"#utility.yul\":3302:3334   */\n      add\n        /* \"#utility.yul\":3299:3340   */\n      gt\n        /* \"#utility.yul\":3296:3424   */\n      iszero\n      tag_128\n      jumpi\n        /* \"#utility.yul\":3343:3422   */\n      tag_129\n      tag_72\n      jump\t// in\n    tag_129:\n        /* \"#utility.yul\":3296:3424   */\n    tag_128:\n        /* \"#utility.yul\":2877:3430   */\n      swap3\n      pop\n      swap3\n      swap1\n      pop\n      jump\t// out\n        /* \"#utility.yul\":3436:3965   */\n    tag_24:\n        /* \"#utility.yul\":3507:3513   */\n      0x00\n        /* \"#utility.yul\":3515:3521   */\n      dup1\n        /* \"#utility.yul\":3564:3566   */\n      0x20\n        /* \"#utility.yul\":3552:3561   */\n      dup4\n        /* \"#utility.yul\":3543:3550   */\n      dup6\n        /* \"#utility.yul\":3539:3562   */\n      sub\n        /* \"#utility.yul\":3535:3567   */\n      slt\n        /* \"#utility.yul\":3532:3651   */\n      iszero\n      tag_131\n      jumpi\n        /* \"#utility.yul\":3570:3649   */\n      tag_132\n      tag_59\n      jump\t// in\n    tag_132:\n        /* \"#utility.yul\":3532:3651   */\n    tag_131:\n        /* \"#utility.yul\":3718:3719   */\n      0x00\n        /* \"#utility.yul\":3707:3716   */\n      dup4\n        /* \"#utility.yul\":3703:3720   */\n      add\n        /* \"#utility.yul\":3690:3721   */\n      calldataload\n        /* \"#utility.yul\":3748:3766   */\n      0xffffffffffffffff\n        /* \"#utility.yul\":3740:3746   */\n      dup2\n        /* \"#utility.yul\":3737:3767   */\n      gt\n        /* \"#utility.yul\":3734:3851   */\n      iszero\n      tag_133\n      jumpi\n        /* \"#utility.yul\":3770:3849   */\n      tag_134\n      tag_60\n      jump\t// in\n    tag_134:\n        /* \"#utility.yul\":3734:3851   */\n    tag_133:\n        /* \"#utility.yul\":3883:3948   */\n      tag_135\n        /* \"#utility.yul\":3940:3947   */\n      dup6\n        /* \"#utility.yul\":3931:3937   */\n      dup3\n        /* \"#utility.yul\":3920:3929   */\n      dup7\n        /* \"#utility.yul\":3916:3938   */\n      add\n        /* \"#utility.yul\":3883:3948   */\n      tag_73\n      jump\t// in\n    tag_135:\n        /* \"#utility.yul\":3865:3948   */\n      swap3\n      pop\n      swap3\n      pop\n        /* \"#utility.yul\":3661:3958   */\n      pop\n        /* \"#utility.yul\":3436:3965   */\n      swap3\n      pop\n      swap3\n      swap1\n      pop\n      jump\t// out\n        /* \"#utility.yul\":3971:4151   */\n    tag_74:\n        /* \"#utility.yul\":4019:4096   */\n      0x4e487b7100000000000000000000000000000000000000000000000000000000\n        /* \"#utility.yul\":4016:4017   */\n      0x00\n        /* \"#utility.yul\":4009:4097   */\n      mstore\n        /* \"#utility.yul\":4116:4120   */\n      0x41\n        /* \"#utility.yul\":4113:4114   */\n      0x04\n        /* \"#utility.yul\":4106:4121   */\n      mstore\n        /* \"#utility.yul\":4140:4144   */\n      0x24\n        /* \"#utility.yul\":4137:4138   */\n      0x00\n        /* \"#utility.yul\":4130:4145   */\n      revert\n        /* \"#utility.yul\":4157:4337   */\n    tag_75:\n        /* \"#utility.yul\":4205:4282   */\n      0x4e487b7100000000000000000000000000000000000000000000000000000000\n        /* \"#utility.yul\":4202:4203   */\n      0x00\n        /* \"#utility.yul\":4195:4283   */\n      mstore\n        /* \"#utility.yul\":4302:4306   */\n      0x22\n        /* \"#utility.yul\":4299:4300   */\n      0x04\n        /* \"#utility.yul\":4292:4307   */\n      mstore\n        /* \"#utility.yul\":4326:4330   */\n      0x24\n        /* \"#utility.yul\":4323:4324   */\n      0x00\n        /* \"#utility.yul\":4316:4331   */\n      revert\n        /* \"#utility.yul\":4343:4663   */\n    tag_36:\n        /* \"#utility.yul\":4387:4393   */\n      0x00\n        /* \"#utility.yul\":4424:4425   */\n      0x02\n        /* \"#utility.yul\":4418:4422   */\n      dup3\n        /* \"#utility.yul\":4414:4426   */\n      div\n        /* \"#utility.yul\":4404:4426   */\n      swap1\n      pop\n        /* \"#utility.yul\":4471:4472   */\n      0x01\n        /* \"#utility.yul\":4465:4469   */\n      dup3\n        /* \"#utility.yul\":4461:4473   */\n      and\n        /* \"#utility.yul\":4492:4510   */\n      dup1\n        /* \"#utility.yul\":4482:4563   */\n      tag_139\n      jumpi\n        /* \"#utility.yul\":4548:4552   */\n      0x7f\n        /* \"#utility.yul\":4540:4546   */\n      dup3\n        /* \"#utility.yul\":4536:4553   */\n      and\n        /* \"#utility.yul\":4526:4553   */\n      swap2\n      pop\n        /* \"#utility.yul\":4482:4563   */\n    tag_139:\n        /* \"#utility.yul\":4610:4612   */\n      0x20\n        /* \"#utility.yul\":4602:4608   */\n      dup3\n        /* \"#utility.yul\":4599:4613   */\n      lt\n        /* \"#utility.yul\":4579:4597   */\n      dup2\n        /* \"#utility.yul\":4576:4614   */\n      sub\n        /* \"#utility.yul\":4573:4657   */\n      tag_140\n      jumpi\n        /* \"#utility.yul\":4629:4647   */\n      tag_141\n      tag_75\n      jump\t// in\n    tag_141:\n        /* \"#utility.yul\":4573:4657   */\n    tag_140:\n        /* \"#utility.yul\":4394:4663   */\n      pop\n        /* \"#utility.yul\":4343:4663   */\n      swap2\n      swap1\n      pop\n      jump\t// out\n        /* \"#utility.yul\":4669:4810   */\n    tag_76:\n        /* \"#utility.yul\":4718:4722   */\n      0x00\n        /* \"#utility.yul\":4741:4744   */\n      dup2\n        /* \"#utility.yul\":4733:4744   */\n      swap1\n      pop\n        /* \"#utility.yul\":4764:4767   */\n      dup2\n        /* \"#utility.yul\":4761:4762   */\n      0x00\n        /* \"#utility.yul\":4754:4768   */\n      mstore\n        /* \"#utility.yul\":4798:4802   */\n      0x20\n        /* \"#utility.yul\":4795:4796   */\n      0x00\n        /* \"#utility.yul\":4785:4803   */\n      keccak256\n        /* \"#utility.yul\":4777:4803   */\n      swap1\n      pop\n        /* \"#utility.yul\":4669:4810   */\n      swap2\n      swap1\n      pop\n      jump\t// out\n        /* \"#utility.yul\":4816:4909   */\n    tag_77:\n        /* \"#utility.yul\":4853:4859   */\n      0x00\n        /* \"#utility.yul\":4900:4902   */\n      0x20\n        /* \"#utility.yul\":4895:4897   */\n      0x1f\n        /* \"#utility.yul\":4888:4893   */\n      dup4\n        /* \"#utility.yul\":4884:4898   */\n      add\n        /* \"#utility.yul\":4880:4903   */\n      div\n        /* \"#utility.yul\":4870:4903   */\n      swap1\n      pop\n        /* \"#utility.yul\":4816:4909   */\n      swap2\n      swap1\n      pop\n      jump\t// out\n        /* \"#utility.yul\":4915:5022   */\n    tag_78:\n        /* \"#utility.yul\":4959:4967   */\n      0x00\n        /* \"#utility.yul\":5009:5014   */\n      dup3\n        /* \"#utility.yul\":5003:5007   */\n      dup3\n        /* \"#utility.yul\":4999:5015   */\n      shl\n        /* \"#utility.yul\":4978:5015   */\n      swap1\n      pop\n        /* \"#utility.yul\":4915:5022   */\n      swap3\n      swap2\n      pop\n      pop\n      jump\t// out\n        /* \"#utility.yul\":5028:5421   */\n    tag_79:\n        /* \"#utility.yul\":5097:5103   */\n      0x00\n        /* \"#utility.yul\":5147:5148   */\n      0x08\n        /* \"#utility.yul\":5135:5145   */\n      dup4\n        /* \"#utility.yul\":5131:5149   */\n      mul\n        /* \"#utility.yul\":5170:5267   */\n      tag_146\n        /* \"#utility.yul\":5200:5266   */\n      0xffffffffffffffffffffffffffffffffffffffffffffffffffffffffffffffff\n        /* \"#utility.yul\":5189:5198   */\n      dup3\n        /* \"#utility.yul\":5170:5267   */\n      tag_78\n      jump\t// in\n    tag_146:\n        /* \"#utility.yul\":5288:5327   */\n      tag_147\n        /* \"#utility.yul\":5318:5326   */\n      dup7\n        /* \"#utility.yul\":5307:5316   */\n      dup4\n        /* \"#utility.yul\":5288:5327   */\n      tag_78\n      jump\t// in\n    tag_147:\n        /* \"#utility.yul\":5276:5327   */\n      swap6\n      pop\n        /* \"#utility.yul\":5360:5364   */\n      dup1\n        /* \"#utility.yul\":5356:5365   */\n      not\n        /* \"#utility.yul\":5349:5354   */\n      dup5\n        /* \"#utility.yul\":5345:5366   */\n      and\n        /* \"#utility.yul\":5336:5366   */\n      swap4\n      pop\n        /* \"#utility.yul\":5409:5413   */\n      dup1\n        /* \"#utility.yul\":5399:5407   */\n      dup7\n        /* \"#utility.yul\":5395:5414   */\n      and\n        /* \"#utility.yul\":5388:5393   */\n      dup5\n        /* \"#utility.yul\":5385:5415   */\n      or\n        /* \"#utility.yul\":5375:5415   */\n      swap3\n      pop\n        /* \"#utility.yul\":5104:5421   */\n      pop\n      pop\n        /* \"#utility.yul\":5028:5421   */\n      swap4\n      swap3\n      pop\n      pop\n      pop\n      jump\t// out\n        /* \"#utility.yul\":5427:5487   */\n    tag_80:\n        /* \"#utility.yul\":5455:5458   */\n      0x00\n        /* \"#utility.yul\":5476:5481   */\n      dup2\n        /* \"#utility.yul\":5469:5481   */\n      swap1\n      pop\n        /* \"#utility.yul\":5427:5487   */\n      swap2\n      swap1\n      pop\n      jump\t// out\n        /* \"#utility.yul\":5493:5635   */\n    tag_81:\n        /* \"#utility.yul\":5543:5552   */\n      0x00\n        /* \"#utility.yul\":5576:5629   */\n      tag_150\n        /* \"#utility.yul\":5594:5628   */\n      tag_151\n        /* \"#utility.yul\":5603:5627   */\n      tag_152\n        /* \"#utility.yul\":5621:5626   */\n      dup5\n        /* \"#utility.yul\":5603:5627   */\n      tag_61\n      jump\t// in\n    tag_152:\n        /* \"#utility.yul\":5594:5628   */\n      tag_80\n      jump\t// in\n    tag_151:\n        /* \"#utility.yul\":5576:5629   */\n      tag_61\n      jump\t// in\n    tag_150:\n        /* \"#utility.yul\":5563:5629   */\n      swap1\n      pop\n        /* \"#utility.yul\":5493:5635   */\n      swap2\n      swap1\n      pop\n      jump\t// out\n        /* \"#utility.yul\":5641:5716   */\n    tag_82:\n        /* \"#utility.yul\":5684:5687   */\n      0x00\n        /* \"#utility.yul\":5705:5710   */\n      dup2\n        /* \"#utility.yul\":5698:5710   */\n      swap1\n      pop\n        /* \"#utility.yul\":5641:5716   */\n      swap2\n      swap1\n      pop\n      jump\t// out\n        /* \"#utility.yul\":5722:5991   */\n    tag_83:\n        /* \"#utility.yul\":5832:5871   */\n      tag_155\n        /* \"#utility.yul\":5863:5870   */\n      dup4\n        /* \"#utility.yul\":5832:5871   */\n      tag_81\n      jump\t// in\n    tag_155:\n        /* \"#utility.yul\":5893:5984   */\n      tag_156\n        /* \"#utility.yul\":5942:5983   */\n      tag_157\n        /* \"#utility.yul\":5966:5982   */\n      dup3\n        /* \"#utility.yul\":5942:5983   */\n      tag_82\n      jump\t// in\n    tag_157:\n        /* \"#utility.yul\":5934:5940   */\n      dup5\n        /* \"#utility.yul\":5927:5931   */\n      dup5\n        /* \"#utility.yul\":5921:5932   */\n      sload\n        /* \"#utility.yul\":5893:5984   */\n      tag_79\n      jump\t// in\n    tag_156:\n        /* \"#utility.yul\":5887:5891   */\n      dup3\n        /* \"#utility.yul\":5880:5985   */\n      sstore\n        /* \"#utility.yul\":5798:5991   */\n      pop\n        /* \"#utility.yul\":5722:5991   */\n      pop\n      pop\n      pop\n      jump\t// out\n        /* \"#utility.yul\":5997:6070   */\n    tag_84:\n        /* \"#utility.yul\":6042:6045   */\n      0x00\n        /* \"#utility.yul\":5997:6070   */\n      swap1\n      jump\t// out\n        /* \"#utility.yul\":6076:6265   */\n    tag_85:\n        /* \"#utility.yul\":6153:6185   */\n      tag_160\n      tag_84\n      jump\t// in\n    tag_160:\n        /* \"#utility.yul\":6194:6259   */\n      tag_161\n        /* \"#utility.yul\":6252:6258   */\n      dup2\n        /* \"#utility.yul\":6244:6250   */\n      dup5\n        /* \"#utility.yul\":6238:6242   */\n      dup5\n        /* \"#utility.yul\":6194:6259   */\n      tag_83\n      jump\t// in\n    tag_161:\n        /* \"#utility.yul\":6129:6265   */\n      pop\n        /* \"#utility.yul\":6076:6265   */\n      pop\n      pop\n      jump\t// out\n        /* \"#utility.yul\":6271:6457   */\n    tag_86:\n        /* \"#utility.yul\":6331:6451   */\n    tag_163:\n        /* \"#utility.yul\":6348:6351   */\n      dup2\n        /* \"#utility.yul\":6341:6346   */\n      dup2\n        /* \"#utility.yul\":6338:6352   */\n      lt\n        /* \"#utility.yul\":6331:6451   */\n      iszero\n      tag_165\n      jumpi\n        /* \"#utility.yul\":6402:6441   */\n      tag_166\n        /* \"#utility.yul\":6439:6440   */\n      0x00\n        /* \"#utility.yul\":6432:6437   */\n      dup3\n        /* \"#utility.yul\":6402:6441   */\n      tag_85\n      jump\t// in\n    tag_166:\n        /* \"#utility.yul\":6375:6376   */\n      0x01\n        /* \"#utility.yul\":6368:6373   */\n      dup2\n        /* \"#utility.yul\":6364:6377   */\n      add\n        /* \"#utility.yul\":6355:6377   */\n      swap1\n      pop\n        /* \"#utility.yul\":6331:6451   */\n      jump(tag_163)\n    tag_165:\n        /* \"#utility.yul\":6271:6457   */\n      pop\n      pop\n      jump\t// out\n        /* \"#utility.yul\":6463:7006   */\n    tag_87:\n        /* \"#utility.yul\":6564:6566   */\n      0x1f\n        /* \"#utility.yul\":6559:6562   */\n      dup3\n        /* \"#utility.yul\":6556:6567   */\n      gt\n        /* \"#utility.yul\":6553:6999   */\n      iszero\n      tag_168\n      jumpi\n        /* \"#utility.yul\":6598:6636   */\n      tag_169\n        /* \"#utility.yul\":6630:6635   */\n      dup2\n        /* \"#utility.yul\":6598:6636   */\n      tag_76\n      jump\t// in\n    tag_169:\n        /* \"#utility.yul\":6682:6711   */\n      tag_170\n        /* \"#utility.yul\":6700:6710   */\n      dup5\n        /* \"#utility.yul\":6682:6711   */\n      tag_77\n      jump\t// in\n    tag_170:\n        /* \"#utility.yul\":6672:6680   */\n      dup2\n        /* \"#utility.yul\":6668:6712   */\n      add\n        /* \"#utility.yul\":6865:6867   */\n      0x20\n        /* \"#utility.yul\":6853:6863   */\n      dup6\n        /* \"#utility.yul\":6850:6868   */\n      lt\n        /* \"#utility.yul\":6847:6896   */\n      iszero\n      tag_171\n      jumpi\n        /* \"#utility.yul\":6886:6894   */\n      dup2\n        /* \"#utility.yul\":6871:6894   */\n      swap1\n      pop\n        /* \"#utility.yul\":6847:6896   */\n    tag_171:\n        /* \"#utility.yul\":6909:6989   */\n      tag_172\n        /* \"#utility.yul\":6965:6987   */\n      tag_173\n        /* \"#utility.yul\":6983:6986   */\n      dup6\n        /* \"#utility.yul\":6965:6987   */\n      tag_77\n      jump\t// in\n    tag_173:\n        /* \"#utility.yul\":6955:6963   */\n      dup4\n        /* \"#utility.yul\":6951:6988   */\n      add\n        /* \"#utility.yul\":6938:6949   */\n      dup3\n        /* \"#utility.yul\":6909:6989   */\n      tag_86\n      jump\t// in\n    tag_172:\n        /* \"#utility.yul\":6568:6999   */\n      pop\n      pop\n        /* \"#utility.yul\":6553:6999   */\n    tag_168:\n        /* \"#utility.yul\":6463:7006   */\n      pop\n      pop\n      pop\n      jump\t// out\n        /* \"#utility.yul\":7012:7129   */\n    tag_88:\n        /* \"#utility.yul\":7066:7074   */\n      0x00\n        /* \"#utility.yul\":7116:7121   */\n      dup3\n        /* \"#utility.yul\":7110:7114   */\n      dup3\n        /* \"#utility.yul\":7106:7122   */\n      shr\n        /* \"#utility.yul\":7085:7122   */\n      swap1\n      pop\n        /* \"#utility.yul\":7012:7129   */\n      swap3\n      swap2\n      pop\n      pop\n      jump\t// out\n        /* \"#utility.yul\":7135:7304   */\n    tag_89:\n        /* \"#utility.yul\":7179:7185   */\n      0x00\n        /* \"#utility.yul\":7212:7263   */\n      tag_176\n        /* \"#utility.yul\":7260:7261   */\n      0x00\n        /* \"#utility.yul\":7256:7262   */\n      not\n        /* \"#utility.yul\":7248:7253   */\n      dup5\n        /* \"#utility.yul\":7245:7246   */\n      0x08\n        /* \"#utility.yul\":7241:7254   */\n      mul\n        /* \"#utility.yul\":7212:7263   */\n      tag_88\n      jump\t// in\n    tag_176:\n        /* \"#utility.yul\":7208:7264   */\n      not\n        /* \"#utility.yul\":7293:7297   */\n      dup1\n        /* \"#utility.yul\":7287:7291   */\n      dup4\n        /* \"#utility.yul\":7283:7298   */\n      and\n        /* \"#utility.yul\":7273:7298   */\n      swap2\n      pop\n        /* \"#utility.yul\":7186:7304   */\n      pop\n        /* \"#utility.yul\":7135:7304   */\n      swap3\n      swap2\n      pop\n      pop\n      jump\t// out\n        /* \"#utility.yul\":7309:7604   */\n    tag_90:\n        /* \"#utility.yul\":7385:7389   */\n      0x00\n        /* \"#utility.yul\":7531:7560   */\n      tag_178\n        /* \"#utility.yul\":7556:7559   */\n      dup4\n        /* \"#utility.yul\":7550:7554   */\n      dup4\n        /* \"#utility.yul\":7531:7560   */\n      tag_89\n      jump\t// in\n    tag_178:\n        /* \"#utility.yul\":7523:7560   */\n      swap2\n      pop\n        /* \"#utility.yul\":7593:7596   */\n      dup3\n        /* \"#utility.yul\":7590:7591   */\n      0x02\n        /* \"#utility.yul\":7586:7597   */\n      mul\n        /* \"#utility.yul\":7580:7584   */\n      dup3\n        /* \"#utility.yul\":7577:7598   */\n      or\n        /* \"#utility.yul\":7569:7598   */\n      swap1\n      pop\n        /* \"#utility.yul\":7309:7604   */\n      swap3\n      swap2\n      pop\n      pop\n      jump\t// out\n        /* \"#utility.yul\":7609:9004   */\n    tag_29:\n        /* \"#utility.yul\":7726:7763   */\n      tag_180\n        /* \"#utility.yul\":7759:7762   */\n      dup3\n        /* \"#utility.yul\":7726:7763   */\n      tag_64\n      jump\t// in\n    tag_180:\n        /* \"#utility.yul\":7828:7846   */\n      0xffffffffffffffff\n        /* \"#utility.yul\":7820:7826   */\n      dup2\n        /* \"#utility.yul\":7817:7847   */\n      gt\n        /* \"#utility.yul\":7814:7870   */\n      iszero\n      tag_181\n      jumpi\n        /* \"#utility.yul\":7850:7868   */\n      tag_182\n      tag_74\n      jump\t// in\n    tag_182:\n        /* \"#utility.yul\":7814:7870   */\n    tag_181:\n        /* \"#utility.yul\":7894:7932   */\n      tag_183\n        /* \"#utility.yul\":7926:7930   */\n      dup3\n        /* \"#utility.yul\":7920:7931   */\n      sload\n        /* \"#utility.yul\":7894:7932   */\n      tag_36\n      jump\t// in\n    tag_183:\n        /* \"#utility.yul\":7979:8046   */\n      tag_184\n        /* \"#utility.yul\":8039:8045   */\n      dup3\n        /* \"#utility.yul\":8031:8037   */\n      dup3\n        /* \"#utility.yul\":8025:8029   */\n      dup6\n        /* \"#utility.yul\":7979:8046   */\n      tag_87\n      jump\t// in\n    tag_184:\n        /* \"#utility.yul\":8073:8074   */\n      0x00\n        /* \"#utility.yul\":8097:8101   */\n      0x20\n        /* \"#utility.yul\":8084:8101   */\n      swap1\n      pop\n        /* \"#utility.yul\":8129:8131   */\n      0x1f\n        /* \"#utility.yul\":8121:8127   */\n      dup4\n        /* \"#utility.yul\":8118:8132   */\n      gt\n        /* \"#utility.yul\":8146:8147   */\n      0x01\n        /* \"#utility.yul\":8141:8759   */\n      dup2\n      eq\n      tag_186\n      jumpi\n        /* \"#utility.yul\":8803:8804   */\n      0x00\n        /* \"#utility.yul\":8820:8826   */\n      dup5\n        /* \"#utility.yul\":8817:8894   */\n      iszero\n      tag_187\n      jumpi\n        /* \"#utility.yul\":8869:8878   */\n      dup3\n        /* \"#utility.yul\":8864:8867   */\n      dup8\n        /* \"#utility.yul\":8860:8879   */\n      add\n        /* \"#utility.yul\":8854:8880   */\n      mload\n        /* \"#utility.yul\":8845:8880   */\n      swap1\n      pop\n        /* \"#utility.yul\":8817:8894   */\n    tag_187:\n        /* \"#utility.yul\":8920:8987   */\n      tag_188\n        /* \"#utility.yul\":8980:8986   */\n      dup6\n        /* \"#utility.yul\":8973:8978   */\n      dup3\n        /* \"#utility.yul\":8920:8987   */\n      tag_90\n      jump\t// in\n    tag_188:\n        /* \"#utility.yul\":8914:8918   */\n      dup7\n        /* \"#utility.yul\":8907:8988   */\n      sstore\n        /* \"#utility.yul\":8776:8998   */\n      pop\n        /* \"#utility.yul\":8111:8998   */\n      jump(tag_185)\n        /* \"#utility.yul\":8141:8759   */\n    tag_186:\n        /* \"#utility.yul\":8193:8197   */\n      0x1f\n        /* \"#utility.yul\":8189:8198   */\n      not\n        /* \"#utility.yul\":8181:8187   */\n      dup5\n        /* \"#utility.yul\":8177:8199   */\n      and\n        /* \"#utility.yul\":8227:8264   */\n      tag_189\n        /* \"#utility.yul\":8259:8263   */\n      dup7\n        /* \"#utility.yul\":8227:8264   */\n      tag_76\n      jump\t// in\n    tag_189:\n        /* \"#utility.yul\":8286:8287   */\n      0x00\n        /* \"#utility.yul\":8300:8508   */\n    tag_190:\n        /* \"#utility.yul\":8314:8321   */\n      dup3\n        /* \"#utility.yul\":8311:8312   */\n      dup2\n        /* \"#utility.yul\":8308:8322   */\n      lt\n        /* \"#utility.yul\":8300:8508   */\n      iszero\n      tag_192\n      jumpi\n        /* \"#utility.yul\":8393:8402   */\n      dup5\n        /* \"#utility.yul\":8388:8391   */\n      dup10\n        /* \"#utility.yul\":8384:8403   */\n      add\n        /* \"#utility.yul\":8378:8404   */\n      mload\n        /* \"#utility.yul\":8370:8376   */\n      dup3\n        /* \"#utility.yul\":8363:8405   */\n      sstore\n        /* \"#utility.yul\":8444:8445   */\n      0x01\n        /* \"#utility.yul\":8436:8442   */\n      dup3\n        /* \"#utility.yul\":8432:8446   */\n      add\n        /* \"#utility.yul\":8422:8446   */\n      swap2\n      pop\n        /* \"#utility.yul\":8491:8493   */\n      0x20\n        /* \"#utility.yul\":8480:8489   */\n      dup6\n        /* \"#utility.yul\":8476:8494   */\n      add\n        /* \"#utility.yul\":8463:8494   */\n      swap5\n      pop\n        /* \"#utility.yul\":8337:8341   */\n      0x20\n        /* \"#utility.yul\":8334:8335   */\n      dup2\n        /* \"#utility.yul\":8330:8342   */\n      add\n        /* \"#utility.yul\":8325:8342   */\n      swap1\n      pop\n        /* \"#utility.yul\":8300:8508   */\n      jump(tag_190)\n    tag_192:\n        /* \"#utility.yul\":8536:8542   */\n      dup7\n        /* \"#utility.yul\":8527:8534   */\n      dup4\n        /* \"#utility.yul\":8524:8543   */\n      lt\n        /* \"#utility.yul\":8521:8700   */\n      iszero\n      tag_193\n      jumpi\n        /* \"#utility.yul\":8594:8603   */\n      dup5\n        /* \"#utility.yul\":8589:8592   */\n      dup10\n        /* \"#utility.yul\":8585:8604   */\n      add\n        /* \"#utility.yul\":8579:8605   */\n      mload\n        /* \"#utility.yul\":8637:8685   */\n      tag_194\n        /* \"#utility.yul\":8679:8683   */\n      0x1f\n        /* \"#utility.yul\":8671:8677   */\n      dup10\n        /* \"#utility.yul\":8667:8684   */\n      and\n        /* \"#utility.yul\":8656:8665   */\n      dup3\n        /* \"#utility.yul\":8637:8685   */\n      tag_89\n      jump\t// in\n    tag_194:\n        /* \"#utility.yul\":8629:8635   */\n      dup4\n        /* \"#utility.yul\":8622:8686   */\n      sstore\n        /* \"#utility.yul\":8544:8700   */\n      pop\n        /* \"#utility.yul\":8521:8700   */\n    tag_193:\n        /* \"#utility.yul\":8746:8747   */\n      0x01\n        /* \"#utility.yul\":8742:8743   */\n      0x02\n        /* \"#utility.yul\":8734:8740   */\n      dup9\n        /* \"#utility.yul\":8730:8744   */\n      mul\n        /* \"#utility.yul\":8726:8748   */\n      add\n        /* \"#utility.yul\":8720:8724   */\n      dup9\n        /* \"#utility.yul\":8713:8749   */\n      sstore\n        /* \"#utility.yul\":8148:8759   */\n      pop\n      pop\n      pop\n        /* \"#utility.yul\":8111:8998   */\n    tag_185:\n      pop\n        /* \"#utility.yul\":7701:9004   */\n      pop\n      pop\n      pop\n        /* \"#utility.yul\":7609:9004   */\n      pop\n      pop\n      jump\t// out\n        /* \"#utility.yul\":9010:9190   */\n    tag_33:\n        /* \"#utility.yul\":9058:9135   */\n      0x4e487b7100000000000000000000000000000000000000000000000000000000\n        /* \"#utility.yul\":9055:9056   */\n      0x00\n        /* \"#utility.yul\":9048:9136   */\n      mstore\n        /* \"#utility.yul\":9155:9159   */\n      0x32\n        /* \"#utility.yul\":9152:9153   */\n      0x04\n        /* \"#utility.yul\":9145:9160   */\n      mstore\n        /* \"#utility.yul\":9179:9183   */\n      0x24\n        /* \"#utility.yul\":9176:9177   */\n      0x00\n        /* \"#utility.yul\":9169:9184   */\n      revert\n        /* \"#utility.yul\":9196:9293   */\n    tag_91:\n        /* \"#utility.yul\":9255:9261   */\n      0x00\n        /* \"#utility.yul\":9283:9286   */\n      dup3\n        /* \"#utility.yul\":9273:9286   */\n      swap1\n      pop\n        /* \"#utility.yul\":9196:9293   */\n      swap3\n      swap2\n      pop\n      pop\n      jump\t// out\n        /* \"#utility.yul\":9299:10702   */\n    tag_57:\n        /* \"#utility.yul\":9423:9467   */\n      tag_198\n        /* \"#utility.yul\":9463:9466   */\n      dup4\n        /* \"#utility.yul\":9458:9461   */\n      dup4\n        /* \"#utility.yul\":9423:9467   */\n      tag_91\n      jump\t// in\n    tag_198:\n        /* \"#utility.yul\":9532:9550   */\n      0xffffffffffffffff\n        /* \"#utility.yul\":9524:9530   */\n      dup2\n        /* \"#utility.yul\":9521:9551   */\n      gt\n        /* \"#utility.yul\":9518:9574   */\n      iszero\n      tag_199\n      jumpi\n        /* \"#utility.yul\":9554:9572   */\n      tag_200\n      tag_74\n      jump\t// in\n    tag_200:\n        /* \"#utility.yul\":9518:9574   */\n    tag_199:\n        /* \"#utility.yul\":9598:9636   */\n      tag_201\n        /* \"#utility.yul\":9630:9634   */\n      dup3\n        /* \"#utility.yul\":9624:9635   */\n      sload\n        /* \"#utility.yul\":9598:9636   */\n      tag_36\n      jump\t// in\n    tag_201:\n        /* \"#utility.yul\":9683:9750   */\n      tag_202\n        /* \"#utility.yul\":9743:9749   */\n      dup3\n        /* \"#utility.yul\":9735:9741   */\n      dup3\n        /* \"#utility.yul\":9729:9733   */\n      dup6\n        /* \"#utility.yul\":9683:9750   */\n      tag_87\n      jump\t// in\n    tag_202:\n        /* \"#utility.yul\":9777:9778   */\n      0x00\n        /* \"#utility.yul\":9806:9808   */\n      0x1f\n        /* \"#utility.yul\":9798:9804   */\n      dup4\n        /* \"#utility.yul\":9795:9809   */\n      gt\n        /* \"#utility.yul\":9823:9824   */\n      0x01\n        /* \"#utility.yul\":9818:10450   */\n      dup2\n      eq\n      tag_204\n      jumpi\n        /* \"#utility.yul\":10494:10495   */\n      0x00\n        /* \"#utility.yul\":10511:10517   */\n      dup5\n        /* \"#utility.yul\":10508:10592   */\n      iszero\n      tag_205\n      jumpi\n        /* \"#utility.yul\":10567:10576   */\n      dup3\n        /* \"#utility.yul\":10562:10565   */\n      dup8\n        /* \"#utility.yul\":10558:10577   */\n      add\n        /* \"#utility.yul\":10545:10578   */\n      calldataload\n        /* \"#utility.yul\":10536:10578   */\n      swap1\n      pop\n        /* \"#utility.yul\":10508:10592   */\n    tag_205:\n        /* \"#utility.yul\":10618:10685   */\n      tag_206\n        /* \"#utility.yul\":10678:10684   */\n      dup6\n        /* \"#utility.yul\":10671:10676   */\n      dup3\n        /* \"#utility.yul\":10618:10685   */\n      tag_90\n      jump\t// in\n    tag_206:\n        /* \"#utility.yul\":10612:10616   */\n      dup7\n        /* \"#utility.yul\":10605:10686   */\n      sstore\n        /* \"#utility.yul\":10467:10696   */\n      pop\n        /* \"#utility.yul\":9788:10696   */\n      jump(tag_203)\n        /* \"#utility.yul\":9818:10450   */\n    tag_204:\n        /* \"#utility.yul\":9870:9874   */\n      0x1f\n        /* \"#utility.yul\":9866:9875   */\n      not\n        /* \"#utility.yul\":9858:9864   */\n      dup5\n        /* \"#utility.yul\":9854:9876   */\n      and\n        /* \"#utility.yul\":9904:9941   */\n      tag_207\n        /* \"#utility.yul\":9936:9940   */\n      dup7\n        /* \"#utility.yul\":9904:9941   */\n      tag_76\n      jump\t// in\n    tag_207:\n        /* \"#utility.yul\":9963:9964   */\n      0x00\n        /* \"#utility.yul\":9977:10192   */\n    tag_208:\n        /* \"#utility.yul\":9991:9998   */\n      dup3\n        /* \"#utility.yul\":9988:9989   */\n      dup2\n        /* \"#utility.yul\":9985:9999   */\n      lt\n        /* \"#utility.yul\":9977:10192   */\n      iszero\n      tag_210\n      jumpi\n        /* \"#utility.yul\":10077:10086   */\n      dup5\n        /* \"#utility.yul\":10072:10075   */\n      dup10\n        /* \"#utility.yul\":10068:10087   */\n      add\n        /* \"#utility.yul\":10055:10088   */\n      calldataload\n        /* \"#utility.yul\":10047:10053   */\n      dup3\n        /* \"#utility.yul\":10040:10089   */\n      sstore\n        /* \"#utility.yul\":10128:10129   */\n      0x01\n        /* \"#utility.yul\":10120:10126   */\n      dup3\n        /* \"#utility.yul\":10116:10130   */\n      add\n        /* \"#utility.yul\":10106:10130   */\n      swap2\n      pop\n        /* \"#utility.yul\":10175:10177   */\n      0x20\n        /* \"#utility.yul\":10164:10173   */\n      dup6\n        /* \"#utility.yul\":10160:10178   */\n      add\n        /* \"#utility.yul\":10147:10178   */\n      swap5\n      pop\n        /* \"#utility.yul\":10014:10018   */\n      0x20\n        /* \"#utility.yul\":10011:10012   */\n      dup2\n        /* \"#utility.yul\":10007:10019   */\n      add\n        /* \"#utility.yul\":10002:10019   */\n      swap1\n      pop\n        /* \"#utility.yul\":9977:10192   */\n      jump(tag_208)\n    tag_210:\n        /* \"#utility.yul\":10220:10226   */\n      dup7\n        /* \"#utility.yul\":10211:10218   */\n      dup4\n        /* \"#utility.yul\":10208:10227   */\n      lt\n        /* \"#utility.yul\":10205:10391   */\n      iszero\n      tag_211\n      jumpi\n        /* \"#utility.yul\":10285:10294   */\n      dup5\n        /* \"#utility.yul\":10280:10283   */\n      dup10\n        /* \"#utility.yul\":10276:10295   */\n      add\n        /* \"#utility.yul\":10263:10296   */\n      calldataload\n        /* \"#utility.yul\":10328:10376   */\n      tag_212\n        /* \"#utility.yul\":10370:10374   */\n      0x1f\n        /* \"#utility.yul\":10362:10368   */\n      dup10\n        /* \"#utility.yul\":10358:10375   */\n      and\n        /* \"#utility.yul\":10347:10356   */\n      dup3\n        /* \"#utility.yul\":10328:10376   */\n      tag_89\n      jump\t// in\n    tag_212:\n        /* \"#utility.yul\":10320:10326   */\n      dup4\n        /* \"#utility.yul\":10313:10377   */\n      sstore\n        /* \"#utility.yul\":10228:10391   */\n      pop\n        /* \"#utility.yul\":10205:10391   */\n    tag_211:\n        /* \"#utility.yul\":10437:10438   */\n      0x01\n        /* \"#utility.yul\":10433:10434   */\n      0x02\n        /* \"#utility.yul\":10425:10431   */\n      dup9\n        /* \"#utility.yul\":10421:10435   */\n      mul\n        /* \"#utility.yul\":10417:10439   */\n      add\n        /* \"#utility.yul\":10411:10415   */\n      dup9\n        /* \"#utility.yul\":10404:10440   */\n      sstore\n        /* \"#utility.yul\":9825:10450   */\n      pop\n      pop\n      pop\n        /* \"#utility.yul\":9788:10696   */\n    tag_203:\n      pop\n        /* \"#utility.yul\":9398:10702   */\n      pop\n      pop\n      pop\n        /* \"#utility.yul\":9299:10702   */\n      pop\n      pop\n      pop\n      jump\t// out\n\n    auxdata: 0xa264697066735822122037f4c319230401b6aba7b91d3cd0ac73b59c555ffe8eb7d966fa3d792c270d6764736f6c634300081a0033\n}\n",
				"bytecode": {
					"linkReferences": {},
					"object": "6080604052348015600e575f80fd5b506109618061001c5f395ff3fe608060405234801561000f575f80fd5b5060043610610055575f3560e01c806315bf62d11461005957806357141452146100635780638e43eeac1461007f578063c6df962d1461009b578063f19922f7146100cc575b5f80fd5b6100616100e8565b005b61007d600480360381019061007891906103ad565b610181565b005b610099600480360381019061009491906103ad565b610255565b005b6100b560048036038101906100b091906103ad565b610284565b6040516100c3929190610457565b60405180910390f35b6100e660048036038101906100e191906104e6565b610338565b005b5f60405180604001604052806040518060400160405280600481526020017f50617773000000000000000000000000000000000000000000000000000000008152508152602001600581525090505f81908060018154018082558091505060019003905f5260205f2090600202015f909190919091505f820151815f0190816101719190610758565b5060208201518160010155505050565b5f805f8154811061019557610194610827565b5b905f5260205f2090600202016040518060400160405290815f820180546101bb9061058b565b80601f01602080910402602001604051908101604052809291908181526020018280546101e79061058b565b80156102325780601f1061020957610100808354040283529160200191610232565b820191905f5260205f20905b81548152906001019060200180831161021557829003601f168201915b505050505081526020016001820154815250509050818160200181815250505050565b5f805f8154811061026957610268610827565b5b905f5260205f20906002020190508181600101819055505050565b5f8181548110610292575f80fd5b905f5260205f2090600202015f91509050805f0180546102b19061058b565b80601f01602080910402602001604051908101604052809291908181526020018280546102dd9061058b565b80156103285780601f106102ff57610100808354040283529160200191610328565b820191905f5260205f20905b81548152906001019060200180831161030b57829003601f168201915b5050505050908060010154905082565b5f805f8154811061034c5761034b610827565b5b905f5260205f20906002020190508282825f01918261036c92919061085e565b50505050565b5f80fd5b5f80fd5b5f819050919050565b61038c8161037a565b8114610396575f80fd5b50565b5f813590506103a781610383565b92915050565b5f602082840312156103c2576103c1610372565b5b5f6103cf84828501610399565b91505092915050565b5f81519050919050565b5f82825260208201905092915050565b8281835e5f83830152505050565b5f601f19601f8301169050919050565b5f61041a826103d8565b61042481856103e2565b93506104348185602086016103f2565b61043d81610400565b840191505092915050565b6104518161037a565b82525050565b5f6040820190508181035f83015261046f8185610410565b905061047e6020830184610448565b9392505050565b5f80fd5b5f80fd5b5f80fd5b5f8083601f8401126104a6576104a5610485565b5b8235905067ffffffffffffffff8111156104c3576104c2610489565b5b6020830191508360018202830111156104df576104de61048d565b5b9250929050565b5f80602083850312156104fc576104fb610372565b5b5f83013567ffffffffffffffff81111561051957610518610376565b5b61052585828601610491565b92509250509250929050565b7f4e487b71000000000000000000000000000000000000000000000000000000005f52604160045260245ffd5b7f4e487b71000000000000000000000000000000000000000000000000000000005f52602260045260245ffd5b5f60028204905060018216806105a257607f821691505b6020821081036105b5576105b461055e565b5b50919050565b5f819050815f5260205f209050919050565b5f6020601f8301049050919050565b5f82821b905092915050565b5f600883026106177fffffffffffffffffffffffffffffffffffffffffffffffffffffffffffffffff826105dc565b61062186836105dc565b95508019841693508086168417925050509392505050565b5f819050919050565b5f61065c6106576106528461037a565b610639565b61037a565b9050919050565b5f819050919050565b61067583610642565b61068961068182610663565b8484546105e8565b825550505050565b5f90565b61069d610691565b6106a881848461066c565b505050565b5b818110156106cb576106c05f82610695565b6001810190506106ae565b5050565b601f821115610710576106e1816105bb565b6106ea846105cd565b810160208510156106f9578190505b61070d610705856105cd565b8301826106ad565b50505b505050565b5f82821c905092915050565b5f6107305f1984600802610715565b1980831691505092915050565b5f6107488383610721565b9150826002028217905092915050565b610761826103d8565b67ffffffffffffffff81111561077a57610779610531565b5b610784825461058b565b61078f8282856106cf565b5f60209050601f8311600181146107c0575f84156107ae578287015190505b6107b8858261073d565b86555061081f565b601f1984166107ce866105bb565b5f5b828110156107f5578489015182556001820191506020850194506020810190506107d0565b86831015610812578489015161080e601f891682610721565b8355505b6001600288020188555050505b505050505050565b7f4e487b71000000000000000000000000000000000000000000000000000000005f52603260045260245ffd5b5f82905092915050565b6108688383610854565b67ffffffffffffffff81111561088157610880610531565b5b61088b825461058b565b6108968282856106cf565b5f601f8311600181146108c3575f84156108b1578287013590505b6108bb858261073d565b865550610922565b601f1984166108d1866105bb565b5f5b828110156108f8578489013582556001820191506020850194506020810190506108d3565b868310156109155784890135610911601f891682610721565b8355505b6001600288020188555050505b5050505050505056fea264697066735822122037f4c319230401b6aba7b91d3cd0ac73b59c555ffe8eb7d966fa3d792c270d6764736f6c634300081a0033",
					"opcodes": "PUSH1 0x80 PUSH1 0x40 MSTORE CALLVALUE DUP1 ISZERO PUSH1 0xE JUMPI PUSH0 DUP1 REVERT JUMPDEST POP PUSH2 0x961 DUP1 PUSH2 0x1C PUSH0 CODECOPY PUSH0 RETURN INVALID PUSH1 0x80 PUSH1 0x40 MSTORE CALLVALUE DUP1 ISZERO PUSH2 0xF JUMPI PUSH0 DUP1 REVERT JUMPDEST POP PUSH1 0x4 CALLDATASIZE LT PUSH2 0x55 JUMPI PUSH0 CALLDATALOAD PUSH1 0xE0 SHR DUP1 PUSH4 0x15BF62D1 EQ PUSH2 0x59 JUMPI DUP1 PUSH4 0x57141452 EQ PUSH2 0x63 JUMPI DUP1 PUSH4 0x8E43EEAC EQ PUSH2 0x7F JUMPI DUP1 PUSH4 0xC6DF962D EQ PUSH2 0x9B JUMPI DUP1 PUSH4 0xF19922F7 EQ PUSH2 0xCC JUMPI JUMPDEST PUSH0 DUP1 REVERT JUMPDEST PUSH2 0x61 PUSH2 0xE8 JUMP JUMPDEST STOP JUMPDEST PUSH2 0x7D PUSH1 0x4 DUP1 CALLDATASIZE SUB DUP2 ADD SWAP1 PUSH2 0x78 SWAP2 SWAP1 PUSH2 0x3AD JUMP JUMPDEST PUSH2 0x181 JUMP JUMPDEST STOP JUMPDEST PUSH2 0x99 PUSH1 0x4 DUP1 CALLDATASIZE SUB DUP2 ADD SWAP1 PUSH2 0x94 SWAP2 SWAP1 PUSH2 0x3AD JUMP JUMPDEST PUSH2 0x255 JUMP JUMPDEST STOP JUMPDEST PUSH2 0xB5 PUSH1 0x4 DUP1 CALLDATASIZE SUB DUP2 ADD SWAP1 PUSH2 0xB0 SWAP2 SWAP1 PUSH2 0x3AD JUMP JUMPDEST PUSH2 0x284 JUMP JUMPDEST PUSH1 0x40 MLOAD PUSH2 0xC3 SWAP3 SWAP2 SWAP1 PUSH2 0x457 JUMP JUMPDEST PUSH1 0x40 MLOAD DUP1 SWAP2 SUB SWAP1 RETURN JUMPDEST PUSH2 0xE6 PUSH1 0x4 DUP1 CALLDATASIZE SUB DUP2 ADD SWAP1 PUSH2 0xE1 SWAP2 SWAP1 PUSH2 0x4E6 JUMP JUMPDEST PUSH2 0x338 JUMP JUMPDEST STOP JUMPDEST PUSH0 PUSH1 0x40 MLOAD DUP1 PUSH1 0x40 ADD PUSH1 0x40 MSTORE DUP1 PUSH1 0x40 MLOAD DUP1 PUSH1 0x40 ADD PUSH1 0x40 MSTORE DUP1 PUSH1 0x4 DUP2 MSTORE PUSH1 0x20 ADD PUSH32 0x5061777300000000000000000000000000000000000000000000000000000000 DUP2 MSTORE POP DUP2 MSTORE PUSH1 0x20 ADD PUSH1 0x5 DUP2 MSTORE POP SWAP1 POP PUSH0 DUP2 SWAP1 DUP1 PUSH1 0x1 DUP2 SLOAD ADD DUP1 DUP3 SSTORE DUP1 SWAP2 POP POP PUSH1 0x1 SWAP1 SUB SWAP1 PUSH0 MSTORE PUSH1 0x20 PUSH0 KECCAK256 SWAP1 PUSH1 0x2 MUL ADD PUSH0 SWAP1 SWAP2 SWAP1 SWAP2 SWAP1 SWAP2 POP PUSH0 DUP3 ADD MLOAD DUP2 PUSH0 ADD SWAP1 DUP2 PUSH2 0x171 SWAP2 SWAP1 PUSH2 0x758 JUMP JUMPDEST POP PUSH1 0x20 DUP3 ADD MLOAD DUP2 PUSH1 0x1 ADD SSTORE POP POP POP JUMP JUMPDEST PUSH0 DUP1 PUSH0 DUP2 SLOAD DUP2 LT PUSH2 0x195 JUMPI PUSH2 0x194 PUSH2 0x827 JUMP JUMPDEST JUMPDEST SWAP1 PUSH0 MSTORE PUSH1 0x20 PUSH0 KECCAK256 SWAP1 PUSH1 0x2 MUL ADD PUSH1 0x40 MLOAD DUP1 PUSH1 0x40 ADD PUSH1 0x40 MSTORE SWAP1 DUP2 PUSH0 DUP3 ADD DUP1 SLOAD PUSH2 0x1BB SWAP1 PUSH2 0x58B JUMP JUMPDEST DUP1 PUSH1 0x1F ADD PUSH1 0x20 DUP1 SWAP2 DIV MUL PUSH1 0x20 ADD PUSH1 0x40 MLOAD SWAP1 DUP2 ADD PUSH1 0x40 MSTORE DUP1 SWAP3 SWAP2 SWAP1 DUP2 DUP2 MSTORE PUSH1 0x20 ADD DUP3 DUP1 SLOAD PUSH2 0x1E7 SWAP1 PUSH2 0x58B JUMP JUMPDEST DUP1 ISZERO PUSH2 0x232 JUMPI DUP1 PUSH1 0x1F LT PUSH2 0x209 JUMPI PUSH2 0x100 DUP1 DUP4 SLOAD DIV MUL DUP4 MSTORE SWAP2 PUSH1 0x20 ADD SWAP2 PUSH2 0x232 JUMP JUMPDEST DUP3 ADD SWAP2 SWAP1 PUSH0 MSTORE PUSH1 0x20 PUSH0 KECCAK256 SWAP1 JUMPDEST DUP2 SLOAD DUP2 MSTORE SWAP1 PUSH1 0x1 ADD SWAP1 PUSH1 0x20 ADD DUP1 DUP4 GT PUSH2 0x215 JUMPI DUP3 SWAP1 SUB PUSH1 0x1F AND DUP3 ADD SWAP2 JUMPDEST POP POP POP POP POP DUP2 MSTORE PUSH1 0x20 ADD PUSH1 0x1 DUP3 ADD SLOAD DUP2 MSTORE POP POP SWAP1 POP DUP2 DUP2 PUSH1 0x20 ADD DUP2 DUP2 MSTORE POP POP POP POP JUMP JUMPDEST PUSH0 DUP1 PUSH0 DUP2 SLOAD DUP2 LT PUSH2 0x269 JUMPI PUSH2 0x268 PUSH2 0x827 JUMP JUMPDEST JUMPDEST SWAP1 PUSH0 MSTORE PUSH1 0x20 PUSH0 KECCAK256 SWAP1 PUSH1 0x2 MUL ADD SWAP1 POP DUP2 DUP2 PUSH1 0x1 ADD DUP2 SWAP1 SSTORE POP POP POP JUMP JUMPDEST PUSH0 DUP2 DUP2 SLOAD DUP2 LT PUSH2 0x292 JUMPI PUSH0 DUP1 REVERT JUMPDEST SWAP1 PUSH0 MSTORE PUSH1 0x20 PUSH0 KECCAK256 SWAP1 PUSH1 0x2 MUL ADD PUSH0 SWAP2 POP SWAP1 POP DUP1 PUSH0 ADD DUP1 SLOAD PUSH2 0x2B1 SWAP1 PUSH2 0x58B JUMP JUMPDEST DUP1 PUSH1 0x1F ADD PUSH1 0x20 DUP1 SWAP2 DIV MUL PUSH1 0x20 ADD PUSH1 0x40 MLOAD SWAP1 DUP2 ADD PUSH1 0x40 MSTORE DUP1 SWAP3 SWAP2 SWAP1 DUP2 DUP2 MSTORE PUSH1 0x20 ADD DUP3 DUP1 SLOAD PUSH2 0x2DD SWAP1 PUSH2 0x58B JUMP JUMPDEST DUP1 ISZERO PUSH2 0x328 JUMPI DUP1 PUSH1 0x1F LT PUSH2 0x2FF JUMPI PUSH2 0x100 DUP1 DUP4 SLOAD DIV MUL DUP4 MSTORE SWAP2 PUSH1 0x20 ADD SWAP2 PUSH2 0x328 JUMP JUMPDEST DUP3 ADD SWAP2 SWAP1 PUSH0 MSTORE PUSH1 0x20 PUSH0 KECCAK256 SWAP1 JUMPDEST DUP2 SLOAD DUP2 MSTORE SWAP1 PUSH1 0x1 ADD SWAP1 PUSH1 0x20 ADD DUP1 DUP4 GT PUSH2 0x30B JUMPI DUP3 SWAP1 SUB PUSH1 0x1F AND DUP3 ADD SWAP2 JUMPDEST POP POP POP POP POP SWAP1 DUP1 PUSH1 0x1 ADD SLOAD SWAP1 POP DUP3 JUMP JUMPDEST PUSH0 DUP1 PUSH0 DUP2 SLOAD DUP2 LT PUSH2 0x34C JUMPI PUSH2 0x34B PUSH2 0x827 JUMP JUMPDEST JUMPDEST SWAP1 PUSH0 MSTORE PUSH1 0x20 PUSH0 KECCAK256 SWAP1 PUSH1 0x2 MUL ADD SWAP1 POP DUP3 DUP3 DUP3 PUSH0 ADD SWAP2 DUP3 PUSH2 0x36C SWAP3 SWAP2 SWAP1 PUSH2 0x85E JUMP JUMPDEST POP POP POP POP JUMP JUMPDEST PUSH0 DUP1 REVERT JUMPDEST PUSH0 DUP1 REVERT JUMPDEST PUSH0 DUP2 SWAP1 POP SWAP2 SWAP1 POP JUMP JUMPDEST PUSH2 0x38C DUP2 PUSH2 0x37A JUMP JUMPDEST DUP2 EQ PUSH2 0x396 JUMPI PUSH0 DUP1 REVERT JUMPDEST POP JUMP JUMPDEST PUSH0 DUP2 CALLDATALOAD SWAP1 POP PUSH2 0x3A7 DUP2 PUSH2 0x383 JUMP JUMPDEST SWAP3 SWAP2 POP POP JUMP JUMPDEST PUSH0 PUSH1 0x20 DUP3 DUP5 SUB SLT ISZERO PUSH2 0x3C2 JUMPI PUSH2 0x3C1 PUSH2 0x372 JUMP JUMPDEST JUMPDEST PUSH0 PUSH2 0x3CF DUP5 DUP3 DUP6 ADD PUSH2 0x399 JUMP JUMPDEST SWAP2 POP POP SWAP3 SWAP2 POP POP JUMP JUMPDEST PUSH0 DUP2 MLOAD SWAP1 POP SWAP2 SWAP1 POP JUMP JUMPDEST PUSH0 DUP3 DUP3 MSTORE PUSH1 0x20 DUP3 ADD SWAP1 POP SWAP3 SWAP2 POP POP JUMP JUMPDEST DUP3 DUP2 DUP4 MCOPY PUSH0 DUP4 DUP4 ADD MSTORE POP POP POP JUMP JUMPDEST PUSH0 PUSH1 0x1F NOT PUSH1 0x1F DUP4 ADD AND SWAP1 POP SWAP2 SWAP1 POP JUMP JUMPDEST PUSH0 PUSH2 0x41A DUP3 PUSH2 0x3D8 JUMP JUMPDEST PUSH2 0x424 DUP2 DUP6 PUSH2 0x3E2 JUMP JUMPDEST SWAP4 POP PUSH2 0x434 DUP2 DUP6 PUSH1 0x20 DUP7 ADD PUSH2 0x3F2 JUMP JUMPDEST PUSH2 0x43D DUP2 PUSH2 0x400 JUMP JUMPDEST DUP5 ADD SWAP2 POP POP SWAP3 SWAP2 POP POP JUMP JUMPDEST PUSH2 0x451 DUP2 PUSH2 0x37A JUMP JUMPDEST DUP3 MSTORE POP POP JUMP JUMPDEST PUSH0 PUSH1 0x40 DUP3 ADD SWAP1 POP DUP2 DUP2 SUB PUSH0 DUP4 ADD MSTORE PUSH2 0x46F DUP2 DUP6 PUSH2 0x410 JUMP JUMPDEST SWAP1 POP PUSH2 0x47E PUSH1 0x20 DUP4 ADD DUP5 PUSH2 0x448 JUMP JUMPDEST SWAP4 SWAP3 POP POP POP JUMP JUMPDEST PUSH0 DUP1 REVERT JUMPDEST PUSH0 DUP1 REVERT JUMPDEST PUSH0 DUP1 REVERT JUMPDEST PUSH0 DUP1 DUP4 PUSH1 0x1F DUP5 ADD SLT PUSH2 0x4A6 JUMPI PUSH2 0x4A5 PUSH2 0x485 JUMP JUMPDEST JUMPDEST DUP3 CALLDATALOAD SWAP1 POP PUSH8 0xFFFFFFFFFFFFFFFF DUP2 GT ISZERO PUSH2 0x4C3 JUMPI PUSH2 0x4C2 PUSH2 0x489 JUMP JUMPDEST JUMPDEST PUSH1 0x20 DUP4 ADD SWAP2 POP DUP4 PUSH1 0x1 DUP3 MUL DUP4 ADD GT ISZERO PUSH2 0x4DF JUMPI PUSH2 0x4DE PUSH2 0x48D JUMP JUMPDEST JUMPDEST SWAP3 POP SWAP3 SWAP1 POP JUMP JUMPDEST PUSH0 DUP1 PUSH1 0x20 DUP4 DUP6 SUB SLT ISZERO PUSH2 0x4FC JUMPI PUSH2 0x4FB PUSH2 0x372 JUMP JUMPDEST JUMPDEST PUSH0 DUP4 ADD CALLDATALOAD PUSH8 0xFFFFFFFFFFFFFFFF DUP2 GT ISZERO PUSH2 0x519 JUMPI PUSH2 0x518 PUSH2 0x376 JUMP JUMPDEST JUMPDEST PUSH2 0x525 DUP6 DUP3 DUP7 ADD PUSH2 0x491 JUMP JUMPDEST SWAP3 POP SWAP3 POP POP SWAP3 POP SWAP3 SWAP1 POP JUMP JUMPDEST PUSH32 0x4E487B7100000000000000000000000000000000000000000000000000000000 PUSH0 MSTORE PUSH1 0x41 PUSH1 0x4 MSTORE PUSH1 0x24 PUSH0 REVERT JUMPDEST PUSH32 0x4E487B7100000000000000000000000000000000000000000000000000000000 PUSH0 MSTORE PUSH1 0x22 PUSH1 0x4 MSTORE PUSH1 0x24 PUSH0 REVERT JUMPDEST PUSH0 PUSH1 0x2 DUP3 DIV SWAP1 POP PUSH1 0x1 DUP3 AND DUP1 PUSH2 0x5A2 JUMPI PUSH1 0x7F DUP3 AND SWAP2 POP JUMPDEST PUSH1 0x20 DUP3 LT DUP2 SUB PUSH2 0x5B5 JUMPI PUSH2 0x5B4 PUSH2 0x55E JUMP JUMPDEST JUMPDEST POP SWAP2 SWAP1 POP JUMP JUMPDEST PUSH0 DUP2 SWAP1 POP DUP2 PUSH0 MSTORE PUSH1 0x20 PUSH0 KECCAK256 SWAP1 POP SWAP2 SWAP1 POP JUMP JUMPDEST PUSH0 PUSH1 0x20 PUSH1 0x1F DUP4 ADD DIV SWAP1 POP SWAP2 SWAP1 POP JUMP JUMPDEST PUSH0 DUP3 DUP3 SHL SWAP1 POP SWAP3 SWAP2 POP POP JUMP JUMPDEST PUSH0 PUSH1 0x8 DUP4 MUL PUSH2 0x617 PUSH32 0xFFFFFFFFFFFFFFFFFFFFFFFFFFFFFFFFFFFFFFFFFFFFFFFFFFFFFFFFFFFFFFFF DUP3 PUSH2 0x5DC JUMP JUMPDEST PUSH2 0x621 DUP7 DUP4 PUSH2 0x5DC JUMP JUMPDEST SWAP6 POP DUP1 NOT DUP5 AND SWAP4 POP DUP1 DUP7 AND DUP5 OR SWAP3 POP POP POP SWAP4 SWAP3 POP POP POP JUMP JUMPDEST PUSH0 DUP2 SWAP1 POP SWAP2 SWAP1 POP JUMP JUMPDEST PUSH0 PUSH2 0x65C PUSH2 0x657 PUSH2 0x652 DUP5 PUSH2 0x37A JUMP JUMPDEST PUSH2 0x639 JUMP JUMPDEST PUSH2 0x37A JUMP JUMPDEST SWAP1 POP SWAP2 SWAP1 POP JUMP JUMPDEST PUSH0 DUP2 SWAP1 POP SWAP2 SWAP1 POP JUMP JUMPDEST PUSH2 0x675 DUP4 PUSH2 0x642 JUMP JUMPDEST PUSH2 0x689 PUSH2 0x681 DUP3 PUSH2 0x663 JUMP JUMPDEST DUP5 DUP5 SLOAD PUSH2 0x5E8 JUMP JUMPDEST DUP3 SSTORE POP POP POP POP JUMP JUMPDEST PUSH0 SWAP1 JUMP JUMPDEST PUSH2 0x69D PUSH2 0x691 JUMP JUMPDEST PUSH2 0x6A8 DUP2 DUP5 DUP5 PUSH2 0x66C JUMP JUMPDEST POP POP POP JUMP JUMPDEST JUMPDEST DUP2 DUP2 LT ISZERO PUSH2 0x6CB JUMPI PUSH2 0x6C0 PUSH0 DUP3 PUSH2 0x695 JUMP JUMPDEST PUSH1 0x1 DUP2 ADD SWAP1 POP PUSH2 0x6AE JUMP JUMPDEST POP POP JUMP JUMPDEST PUSH1 0x1F DUP3 GT ISZERO PUSH2 0x710 JUMPI PUSH2 0x6E1 DUP2 PUSH2 0x5BB JUMP JUMPDEST PUSH2 0x6EA DUP5 PUSH2 0x5CD JUMP JUMPDEST DUP2 ADD PUSH1 0x20 DUP6 LT ISZERO PUSH2 0x6F9 JUMPI DUP2 SWAP1 POP JUMPDEST PUSH2 0x70D PUSH2 0x705 DUP6 PUSH2 0x5CD JUMP JUMPDEST DUP4 ADD DUP3 PUSH2 0x6AD JUMP JUMPDEST POP POP JUMPDEST POP POP POP JUMP JUMPDEST PUSH0 DUP3 DUP3 SHR SWAP1 POP SWAP3 SWAP2 POP POP JUMP JUMPDEST PUSH0 PUSH2 0x730 PUSH0 NOT DUP5 PUSH1 0x8 MUL PUSH2 0x715 JUMP JUMPDEST NOT DUP1 DUP4 AND SWAP2 POP POP SWAP3 SWAP2 POP POP JUMP JUMPDEST PUSH0 PUSH2 0x748 DUP4 DUP4 PUSH2 0x721 JUMP JUMPDEST SWAP2 POP DUP3 PUSH1 0x2 MUL DUP3 OR SWAP1 POP SWAP3 SWAP2 POP POP JUMP JUMPDEST PUSH2 0x761 DUP3 PUSH2 0x3D8 JUMP JUMPDEST PUSH8 0xFFFFFFFFFFFFFFFF DUP2 GT ISZERO PUSH2 0x77A JUMPI PUSH2 0x779 PUSH2 0x531 JUMP JUMPDEST JUMPDEST PUSH2 0x784 DUP3 SLOAD PUSH2 0x58B JUMP JUMPDEST PUSH2 0x78F DUP3 DUP3 DUP6 PUSH2 0x6CF JUMP JUMPDEST PUSH0 PUSH1 0x20 SWAP1 POP PUSH1 0x1F DUP4 GT PUSH1 0x1 DUP2 EQ PUSH2 0x7C0 JUMPI PUSH0 DUP5 ISZERO PUSH2 0x7AE JUMPI DUP3 DUP8 ADD MLOAD SWAP1 POP JUMPDEST PUSH2 0x7B8 DUP6 DUP3 PUSH2 0x73D JUMP JUMPDEST DUP7 SSTORE POP PUSH2 0x81F JUMP JUMPDEST PUSH1 0x1F NOT DUP5 AND PUSH2 0x7CE DUP7 PUSH2 0x5BB JUMP JUMPDEST PUSH0 JUMPDEST DUP3 DUP2 LT ISZERO PUSH2 0x7F5 JUMPI DUP5 DUP10 ADD MLOAD DUP3 SSTORE PUSH1 0x1 DUP3 ADD SWAP2 POP PUSH1 0x20 DUP6 ADD SWAP5 POP PUSH1 0x20 DUP2 ADD SWAP1 POP PUSH2 0x7D0 JUMP JUMPDEST DUP7 DUP4 LT ISZERO PUSH2 0x812 JUMPI DUP5 DUP10 ADD MLOAD PUSH2 0x80E PUSH1 0x1F DUP10 AND DUP3 PUSH2 0x721 JUMP JUMPDEST DUP4 SSTORE POP JUMPDEST PUSH1 0x1 PUSH1 0x2 DUP9 MUL ADD DUP9 SSTORE POP POP POP JUMPDEST POP POP POP POP POP POP JUMP JUMPDEST PUSH32 0x4E487B7100000000000000000000000000000000000000000000000000000000 PUSH0 MSTORE PUSH1 0x32 PUSH1 0x4 MSTORE PUSH1 0x24 PUSH0 REVERT JUMPDEST PUSH0 DUP3 SWAP1 POP SWAP3 SWAP2 POP POP JUMP JUMPDEST PUSH2 0x868 DUP4 DUP4 PUSH2 0x854 JUMP JUMPDEST PUSH8 0xFFFFFFFFFFFFFFFF DUP2 GT ISZERO PUSH2 0x881 JUMPI PUSH2 0x880 PUSH2 0x531 JUMP JUMPDEST JUMPDEST PUSH2 0x88B DUP3 SLOAD PUSH2 0x58B JUMP JUMPDEST PUSH2 0x896 DUP3 DUP3 DUP6 PUSH2 0x6CF JUMP JUMPDEST PUSH0 PUSH1 0x1F DUP4 GT PUSH1 0x1 DUP2 EQ PUSH2 0x8C3 JUMPI PUSH0 DUP5 ISZERO PUSH2 0x8B1 JUMPI DUP3 DUP8 ADD CALLDATALOAD SWAP1 POP JUMPDEST PUSH2 0x8BB DUP6 DUP3 PUSH2 0x73D JUMP JUMPDEST DUP7 SSTORE POP PUSH2 0x922 JUMP JUMPDEST PUSH1 0x1F NOT DUP5 AND PUSH2 0x8D1 DUP7 PUSH2 0x5BB JUMP JUMPDEST PUSH0 JUMPDEST DUP3 DUP2 LT ISZERO PUSH2 0x8F8 JUMPI DUP5 DUP10 ADD CALLDATALOAD DUP3 SSTORE PUSH1 0x1 DUP3 ADD SWAP2 POP PUSH1 0x20 DUP6 ADD SWAP5 POP PUSH1 0x20 DUP2 ADD SWAP1 POP PUSH2 0x8D3 JUMP JUMPDEST DUP7 DUP4 LT ISZERO PUSH2 0x915 JUMPI DUP5 DUP10 ADD CALLDATALOAD PUSH2 0x911 PUSH1 0x1F DUP10 AND DUP3 PUSH2 0x721 JUMP JUMPDEST DUP4 SSTORE POP JUMPDEST PUSH1 0x1 PUSH1 0x2 DUP9 MUL ADD DUP9 SSTORE POP POP POP JUMPDEST POP POP POP POP POP POP POP JUMP INVALID LOG2 PUSH5 0x6970667358 0x22 SLT KECCAK256 CALLDATACOPY DELEGATECALL 0xC3 NOT 0x23 DIV ADD 0xB6 0xAB 0xA7 0xB9 SAR EXTCODECOPY 0xD0 0xAC PUSH20 0xB59C555FFE8EB7D966FA3D792C270D6764736F6C PUSH4 0x4300081A STOP CALLER "
				},
				"gasEstimates": {
					"creation": {
						"codeDepositCost": "480200",
						"executionCost": "516",
						"totalCost": "480716"
					},
					"external": {
						"cats(uint256)": "infinite",
						"changeCatCallData(string)": "infinite",
						"changeCatInMemory(uint256)": "infinite",
						"changeCatInStorage(uint256)": "24743",
						"createCats()": "infinite"
					}
				},
				"methodIdentifiers": {
					"cats(uint256)": "c6df962d",
					"changeCatCallData(string)": "f19922f7",
					"changeCatInMemory(uint256)": "57141452",
					"changeCatInStorage(uint256)": "8e43eeac",
					"createCats()": "15bf62d1"
				}
			},
			"storageLayout": {
				"storage": [
					{
						"astId": 10,
						"contract": "ProofOf Work/catsProofOfwork.sol:CatStore",
						"label": "cats",
						"offset": 0,
						"slot": "0",
						"type": "t_array(t_struct(Cat)6_storage)dyn_storage"
					}
				],
				"types": {
					"t_array(t_struct(Cat)6_storage)dyn_storage": {
						"base": "t_struct(Cat)6_storage",
						"encoding": "dynamic_array",
						"label": "struct CatStore.Cat[]",
						"numberOfBytes": "32"
					},
					"t_string_storage": {
						"encoding": "bytes",
						"label": "string",
						"numberOfBytes": "32"
					},
					"t_struct(Cat)6_storage": {
						"encoding": "inplace",
						"label": "struct CatStore.Cat",
						"members": [
							{
								"astId": 3,
								"contract": "ProofOf Work/catsProofOfwork.sol:CatStore",
								"label": "name",
								"offset": 0,
								"slot": "0",
								"type": "t_string_storage"
							},
							{
								"astId": 5,
								"contract": "ProofOf Work/catsProofOfwork.sol:CatStore",
								"label": "age",
								"offset": 0,
								"slot": "1",
								"type": "t_uint256"
							}
						],
						"numberOfBytes": "64"
					},
					"t_uint256": {
						"encoding": "inplace",
						"label": "uint256",
						"numberOfBytes": "32"
					}
				}
			},
			"userdoc": {
				"kind": "user",
				"methods": {},
				"version": 1
			}
		}
	}
}